{
  "_format": "hh-sol-artifact-1",
  "contractName": "EtherWallet",
  "sourceName": "contracts/EtherWallet.sol",
  "abi": [
    {
      "inputs": [],
      "stateMutability": "nonpayable",
      "type": "constructor"
    },
    {
      "inputs": [],
      "name": "balanceOf",
      "outputs": [
        {
          "internalType": "uint256",
          "name": "",
          "type": "uint256"
        }
      ],
      "stateMutability": "view",
      "type": "function"
    },
    {
      "inputs": [],
      "name": "deposit",
      "outputs": [],
      "stateMutability": "payable",
      "type": "function"
    },
    {
      "inputs": [],
      "name": "owner",
      "outputs": [
        {
          "internalType": "address payable",
          "name": "",
          "type": "address"
        }
      ],
      "stateMutability": "view",
      "type": "function"
    },
    {
      "inputs": [
        {
          "internalType": "address payable",
          "name": "receiver",
          "type": "address"
        },
        {
          "internalType": "uint256",
          "name": "amount",
          "type": "uint256"
        }
      ],
      "name": "withdraw",
      "outputs": [],
      "stateMutability": "nonpayable",
      "type": "function"
    }
  ],
  "bytecode": "0x608060405234801561001057600080fd5b50336000806101000a81548173ffffffffffffffffffffffffffffffffffffffff021916908373ffffffffffffffffffffffffffffffffffffffff1602179055506103da806100606000396000f3fe60806040526004361061003f5760003560e01c8063722713f7146100445780638da5cb5b1461006f578063d0e30db01461009a578063f3fef3a3146100a4575b600080fd5b34801561005057600080fd5b506100596100cd565b60405161006691906101ed565b60405180910390f35b34801561007b57600080fd5b506100846100d5565b6040516100919190610249565b60405180910390f35b6100a26100f9565b005b3480156100b057600080fd5b506100cb60048036038101906100c691906102c1565b6100fb565b005b600047905090565b60008054906101000a900473ffffffffffffffffffffffffffffffffffffffff1681565b565b60008054906101000a900473ffffffffffffffffffffffffffffffffffffffff1673ffffffffffffffffffffffffffffffffffffffff163373ffffffffffffffffffffffffffffffffffffffff1614610189576040517f08c379a000000000000000000000000000000000000000000000000000000000815260040161018090610384565b60405180910390fd5b8173ffffffffffffffffffffffffffffffffffffffff166108fc829081150290604051600060405180830381858888f193505050501580156101cf573d6000803e3d6000fd5b505050565b6000819050919050565b6101e7816101d4565b82525050565b600060208201905061020260008301846101de565b92915050565b600073ffffffffffffffffffffffffffffffffffffffff82169050919050565b600061023382610208565b9050919050565b61024381610228565b82525050565b600060208201905061025e600083018461023a565b92915050565b600080fd5b61027281610228565b811461027d57600080fd5b50565b60008135905061028f81610269565b92915050565b61029e816101d4565b81146102a957600080fd5b50565b6000813590506102bb81610295565b92915050565b600080604083850312156102d8576102d7610264565b5b60006102e685828601610280565b92505060206102f7858286016102ac565b9150509250929050565b600082825260208201905092915050565b7f4f6e6c79206f776e65722063616e20776974686472617720746865204574686560008201527f7200000000000000000000000000000000000000000000000000000000000000602082015250565b600061036e602183610301565b915061037982610312565b604082019050919050565b6000602082019050818103600083015261039d81610361565b905091905056fea26469706673582212207502339f00b5a711827920b933c3d868abe9d257d9c9198fd0a98294dd77c08564736f6c63430008180033",
  "linkReferences": {},
  "deployedLinkReferences": {}
}